:020000040800F2
:10000000601500201D0200082902000829020008CE
:100010002902000829020008290200080000000047
:10002000000000000000000000000000290200089D
:1000300029020008000000002902000849250008E4
:1000400029020008B90B000829020008290200084B
:1000500029020008290200082902000829020008D4
:10006000290200080000000000000000000000005D
:1000700029020008000000002902000829020008E7
:1000800029020008290200082902000829020008A4
:100090002902000829020008290200082902000894
:1000A0002902000829020008290200082902000884
:1000B0002902000829020008290200082902000874
:1000C0002902000829020008290200082902000864
:1000D0002902000829020008290200082902000854
:1000E0002902000829020008290200082902000844
:1000F0003B0A00083D0A00082902000829020008FE
:100100002902000829020008290200082902000823
:100110002902000829020008290200082902000813
:100120002902000829020008290200082902000803
:1001300029020008290200082902000829020008F3
:1001400029020008290200082902000829020008E3
:1001500029020008290200082902000829020008D3
:10016000000000000000000000000000000000008F
:1001700029020008290200082902000829020008B3
:1001800029020008290200082902000829020008A3
:100190002902000829020008290200082902000893
:1001A00029020008A528000829020008C52800081F
:1001B000D52800082902000829020008E5280008BF
:1001C0002902000829020008290200082902000863
:1001D0000529000825290008290200080000000060
:1001E0002902000829020008290200082902000843
:1001F0002902000800000000290200080000000099
:10020000DFF814D000F08AFB00F05AF800480047ED
:100210000D80000800F0D4FA60150020DFF80CD043
:100220000348804703480047FEE7000060150020B0
:1002300089280008010200080649074A0868504357
:1002400043F23902104408604008704701490860D1
:10025000704700002C0300206D4EC64110B5431AB4
:10026000934209D28318881803E010F8011D03F89F
:10027000011D521EF9D210BD40EA01039B0703D0B5
:1002800009E008C9121F08C0042AFAD203E011F8D5
:10029000013B00F8013B521EF9D210BDD2B201E081
:1002A00000F8012B491EFBD270470022F6E710B57B
:1002B00013460A4604461946FFF7F0FF204610BDD4
:1002C00070B5054C054D03E0206820448047241D8F
:1002D000AC42F9D170BD0000B8950008C89500087F
:1002E0002DE9F041074615460E46102005F0F4FFB3
:1002F00004000AD06760C4E9026500F05DFA016895
:10030000216004600020BDE8F0810120FBE72DE9B9
:10031000FE4F804681EA0300C00F0C46009021F09A
:10032000004123F00045B8EB0200A94105D2404648
:10033000214690461C460B46024623F000401043DF
:1003400047D0270DC7F30A00C3F30A510290401AA1
:10035000019040286BDAC3F3130040F4801B00982F
:10036000924620B10023D2EB030A63EB0B0B0198FA
:100370005946C0F14002504600F0EDF906460D46E0
:1003800050465946019A00F005FA10EB0800614109
:10039000002487EA115284EAE7731A4340D0009A96
:1003A00062B3019A012A4FEA075215DC001B61EB88
:1003B00002014FF0004202EA0752CDE90042001C60
:1003C00041F5801132462B4600F02AFA03B0BDE811
:1003D000F08F40462146F9E7001B61EB0201001C4B
:1003E00041F5801300185B412018A2F5001747EB78
:1003F000030140EAD570B6196D4111E06D084FEA6E
:10040000360645EAC0754FEA0752001B61EB020150
:10041000001C41F5801149084FEA30000019514194
:1004200032462B4603B0BDE8F04F00F0EAB9009821
:10043000012240000023D0EB020263EBE07300983E
:1004400021464FEAE074B8EB000061EB0401E9E7F4
:1004500083F000435BE781F0004158E72DE9FE4F50
:1004600081EA030404F0004421F0004100944FF0BD
:10047000000B23F0004350EA01045ED052EA03046B
:100480005BD0C3F30A54C1F30A552C44A4F2F334ED
:100490000194A0FB0254C1F3130141F48011C3F392
:1004A000130343F4801301FB024400FB034E840A50
:1004B000970A44EA815447EA8357A4FB07680295E8
:1004C0008D0A05FB07854FEA932C04FB0C54270586
:1004D000029D4FEA065847EA1637B5EB08056EEB62
:1004E000070C870E920E47EA811742EA8312A7FB98
:1004F0000201B6EB0B0164EB00042B0D43EA0C3355
:100500005E1844EB1C50DA465146E7FB0201C5F386
:1005100013044FEA0B3343EA14534FEA0432019CAD
:1005200043EA0603A4F10C040294009CCDE900B454
:1005300000F076F903B0BDE8F08F00200146F9E73E
:100540002DE9F04D81EA030404F0004B21F0004551
:1005500014464FF0000A23F0004150EA050220D073
:1005600054EA01021DD0C5F30A570246C5F313032E
:10057000C1F31300C1F30A5640F4801543F480130D
:10058000A7EB0608101BD64608F2FD3873EB0500F2
:1005900002D308F1010801E092185B41B8F1000FA5
:1005A00003DA00200146BDE8F08D00204FF48011F1
:1005B000064684460EE0171B73EB050705D3121B96
:1005C00063EB050306434CEA010C49084FEA30008F
:1005D00092185B4150EA0107EDD152EA030012D0B4
:1005E00082EA040083EA0501084305D0101BAB41F1
:1005F00006D20122002306E000224FF0004302E071
:100600006FF0010253101AEB06004CEB085110EB8F
:100610000A0041EB0B01BDE8F04D00F0F2B80EB559
:10062000C10F80EAE0700844CA07002140F233435A
:100630008DE80E000A460B4600F0F2F803B000BD4C
:100640000EB540F2334102910021CDE900110A4676
:100650000B4600F0E5F803B000BD70B5C1F30A52D7
:1006600001F000450024C1F3130140F2FF3341F4CF
:1006700080119A4201DA002070BD40F233439A4261
:10068000A2F2334203DC524200F074F800E09040E2
:100690002C43F1D0404270BD30B5041E71F100040E
:1006A00004DB4FF00044404264EB0101141E73F17F
:1006B000000405DB1C464FF00043524263EB040389
:1006C000994208BF904230BD30B50B46014600202C
:1006D0002022012409E021FA02F59D4205D303FA04
:1006E00002F5491B04FA02F52844151EA2F1010285
:1006F000F1DC30BD2DE9F05F0546002092469B46B7
:1007000088460646814640241BE028464146474627
:10071000224600F02FF853465A46C01A914110D392
:1007200011461846224600F016F82D1A67EB01080C
:100730004F4622460120002100F00DF817EB00097A
:100740004E41201EA4F10104DFDC484631462A4612
:100750004346BDE8F09F202A04DB203A00FA02F16C
:10076000002070479140C2F1200320FA03F319439F
:1007700090407047202A04DB203A21FA02F0002141
:10078000704721FA02F3D040C2F1200291400843A1
:1007900019467047202A06DBCB17203A41FA02F0AF
:1007A00043EAE07306E041FA02F3D040C2F12002CE
:1007B00091400843194670470048704740030020A5
:1007C0002DE9F0410646FFF7F7FF8046454613E066
:1007D00016B1E068B0420ED120682860D4E901016A
:1007E000D8F800708847204604F0A4FED8F800002E
:1007F000B842EBD100E025462C68002CE8D1BDE8DA
:10080000F08110B5141E73F1000408DA401C41F1A8
:10081000000192185B411A4301D120F0010010BD84
:100820002DE9F04D92469B4611B1B1FA81F202E0FA
:10083000B0FA80F220329046FFF78DFF04460F4653
:1008400040EA0A0041EA0B0153465A46084313D0D6
:10085000114653EA010019D0C8F140025046FFF793
:1008600089FF05460E46504659464246FFF773FF3C
:10087000084305D0012004E020463946BDE8F08D4C
:100880000020054346EAE0762C4337430A98630587
:10089000E40AA0EB08000022FD0A44EA47540A30AB
:1008A00002D500200146E9E7010510196941DDE99B
:1008B000084500196941BDE8F04DA2E770B521F087
:1008C000004303430CD0C1F30A550024D5EB0405C3
:1008D00064EB0403D617AD1AB34102DB00200146D6
:1008E00070BD201841EB025170BDC1F30A52C1F333
:1008F000130140F2FF3341F480119A4202DA0020E2
:100900000146704740F233439A42A2F2334202DC7E
:100910005242FFF72FBFFFF71EBF0000064C074DE6
:1009200006E0E06840F0010394E8070098471034BF
:10093000AC42F6D3FFF768FC98950008B89500081C
:1009400070472DE9F04D00231A461B1A8A4103DB3C
:1009500000200146BDE8F08DC1F30A52C1F3130136
:1009600041F480154FF0000BD10702D100186D4102
:10097000521E0027044640F2FF11384601EB620A7E
:100980003E468046024600204FF48011FFF7F2FEFB
:10099000C2197141BB1846EB0100B4EB030C75EBB7
:1009A000000C04D3E41A65EB000517460E46241923
:1009B00008F101006D4180463428E3DDF91946EB6A
:1009C0000600091BA84103D24FF0FF32134601E095
:1009D000002213461BEB070046EB0A51BDE8F04D21
:1009E000FFF70FBF70B58C1810F8015B15F0070307
:1009F00001D110F8013B2A1106D110F8012B03E0B8
:100A000010F8016B01F8016B5B1EF9D12B0705D4BF
:100A10000023521E0DD401F8013BFAE710F8013B08
:100A2000CB1A921C03E013F8015B01F8015B521E24
:100A3000F9D5A142D8D3002070BD7047704700009F
:100A40002DE9F04FBBB00446894617469A465046FA
:100A500006F04AFC204606F0AFFA18B100203BB081
:100A6000BDE8F08F50480168204606F07BFA002868
:100A700001DB0020F3E704F11C0006F09DFA08B149
:100A80000020ECE74848016804F11C0006F06AFA0F
:100A9000002801DB0020E2E7384606F0F5FC08B943
:100AA0000020DCE7414806F0EFFC08B90020D6E75B
:100AB0004D464FF0000B3E4800681F300121C1EB4E
:100AC00050161FE028780106687841EA0041A878AE
:100AD00041EA0020E97840EA01083548007800F052
:100AE0001F010BFA01F03249097801F01F01C1F131
:100AF000200128FA01F1084334A941F82600C34631
:100B00002D1D761E002EDDDA05E0274834A9026887
:100B100034A806F0B9FA2448016834A806F022FA8D
:100B20000028F2DA04F11C0234A92DA807F0B8F865
:100B30002DA81E4B18AA1FA9009026A806F0FAFBA4
:100B400004F11C0221462DA807F0AAF82DA83B4667
:100B500003AA0AA9009011A806F0ECFB03A80AA9B1
:100B600011AA18ABCDE9002102901FAA26A92DA831
:100B700006F0F2FA08B1002071E705E00A482DA955
:100B800002682DA806F080FA074801682DA806F033
:100B9000E9F90028F2DA21462DA8064A12689047A2
:100BA0002DA806F009FA5AE7F8020020D40A00201E
:100BB000080300201003002001200149087070473D
:100BC000EA02002000487047001BB700014600E021
:100BD000491E0029FCD1704702464FF4AF70064B06
:100BE000188040F21A40054B188040F2D660044B42
:100BF00018800020704700002803002026030020F2
:100C00002A0300200146002201204B88C3F3403311
:100C10001A444B88C3F300331A444B88C3F3C023F0
:100C20001A444B88C3F380231A444B88C3F34023F0
:100C30001A444B88C3F300231A448B78C3F3C003D0
:100C40001A448B78C3F3C0131344DAB28B78C3F31E
:100C500080131344DAB28B78C3F340131344DAB22F
:100C60008B78C3F380031344DAB28B78C3F3001399
:100C70001344DAB28B78C3F340031344DAB28B78AF
:100C800003F001031344DAB2072A00DD00207047A5
:100C900010B50246002101235088C0F38030014482
:100CA0005088C0F3003001445088C0F380200144D4
:100CB0005088C0F3002001449078C0F3C010014474
:100CC0009078C0F3401001449078C0F300100144C4
:100CD000907800F001000844C1B2084601EBD074DE
:100CE0006410A1EB440404B1002300215088C0F338
:100CF000803001445088C0F3403001445088C0F334
:100D0000802001445088C0F3402001449078C0F313
:100D1000C01001449078C0F3801001449078C0F373
:100D2000001001449078C0F340000844C1B2084666
:100D300001EBD0746410A1EB440404B10023002142
:100D40005088C0F3803001445088C0F340300144E3
:100D50005088C0F3003001445088C0F3C0200144E3
:100D60009078C0F3C01001449078C0F38010014423
:100D70009078C0F3401001449078C0F3800008449C
:100D8000C1B2084601EBD0746410A1EB440404B175
:100D9000002300215088C0F3803001445088C0F304
:100DA000403001445088C0F3003001445088C0F303
:100DB000C02001445088C0F3802001445088C0F313
:100DC000402001445088C0F3002001449078C0F3D3
:100DD000C0000844C1B2084601EBD0746410A1EB16
:100DE000440404B10023184610BD10B50446204643
:100DF000FFF708FF08B9002010BD2088C00B48B1DC
:100E0000208820F4004020806088C043618860F31F
:100E10000D0161806088C0F380306188B0EBD13F04
:100E200003D02046FFF734FF08B90020E4E7012093
:100E3000E2E72DE9F84381460D4690461C46002620
:100E4000B4F5807F16D02746E01704EB1070001130
:100E50003030C1B2082000F09BF92746E01704EBC0
:100E600010700011A4EB00102030C1B2082000F077
:100E70008FF907E03021082000F08AF920210820AE
:100E800000F086F9290A052000F082F9E9B207206E
:100E900000F07EF9002611E0684600F065F80128B0
:100EA00006D1BDF80200C0F3071008F8060003E001
:100EB00048F20300BDE8F883701C86B2A642EBDB63
:100EC0000020F7E7F8B506460D4614463021082005
:100ED00000F05EF92221082000F05AF9290A0520C5
:100EE00000F056F9E9B2072000F052F9684600F028
:100EF0003BF8012815D1BDF80200C0F3071000022D
:100F00002080684600F030F8012807D12088BDF81D
:100F10000210C1F307110843208005E048F20300E6
:100F2000F8BD48F20300FBE70020F9E7F8B50646F4
:100F30000C461546210A052000F02AF9E1B20720E7
:100F400000F026F9684600F00FF8012805D1BDF839
:100F50000200C0F30710287004E0FF20287048F258
:100F60000300F8BD0020FCE72DE9F04F93B00446E4
:100F700010268648008800EB80004FEA80094FF079
:100F8000000A6FEA0A0B04E0A9F101090320FFF748
:100F90001DFE06F007FB10B1B9F1000FF4D1B9F155
:100FA000000F03D1002013B0BDE8F08F06F0FAFA6D
:100FB00007464FF0110817E00020019002E0019869
:100FC000401C019006F0EEFAB842F8D03146721E8D
:100FD000D6B202AA019842F8210006F0E3FA0746C9
:100FE000A8F1010000F0FF08B8F1000FE4D10026DD
:100FF00012E002A850F82600584503D202A850F883
:1010000026B007E002A850F82600504502D902A8F1
:1010100050F826A0701CC6B2112EEADBAAEB0B001A
:1010200045085D441298A84201D9012000E0002043
:10103000618860F3CF3161801198A84201D9012005
:1010400000E00020618860F38E3161801098A84232
:1010500001D9012000E00020618860F34D316180FA
:101060000F98A84201D9012000E00020618860F3B8
:101070000C3161800E98A84201D9012000E00020C7
:10108000618860F3CB2161800D98A84201D90120CD
:1010900000E00020618860F38A2161800C98A842FA
:1010A00001D9012000E00020618860F349216180BE
:1010B0000B98A84201D9012000E00020618860F36C
:1010C000082161800A98A84201D9012000E000208F
:1010D000618860F3C30161800998A84201D90120A9
:1010E00000E00020618860F3C71161800898A84281
:1010F00001D9012000E00020618860F38611618041
:101100000798A84201D9012000E00020618860F31F
:10111000451161800698A84201D9012000E0002015
:10112000618860F3820161800598A84201D901209D
:1011300000E00020618860F3041161800498A842F7
:1011400001D9012000E00020618860F34101618045
:101150000398A84201D9012000E00020618860F3D3
:10116000000161800298A84201D9012000E000201E
:10117000218860F3CF3121802046FFF736FE10B979
:10118000002400200FE701200DE7000028030020C5
:10119000F8B506460D466C4600200090BDF80200EA
:1011A00066F30F30ADF80200BDF8020065F30B10D6
:1011B000ADF80200684600F02DF9684600F0E3F94A
:1011C000012007F07DFA012007F05EFA8E480088C2
:1011D000FFF7FCFC002007F057FA6088C00B20B135
:1011E0008A480088FFF7F2FC03E089480088FFF78F
:1011F000EDFC012007F048FA6088C0F3803020B190
:1012000082480088FFF7E2FC03E081480088FFF78E
:10121000DDFC002007F038FA6088C0F3403020B1D0
:101220007A480088FFF7D2FC03E079480088FFF78E
:10123000CDFC012007F028FA6088C0F3003020B10F
:1012400072480088FFF7C2FC03E071480088FFF78E
:10125000BDFC002007F018FA6088C0F3C02020B160
:101260006A480088FFF7B2FC03E069480088FFF78E
:10127000ADFC012007F008FA6088C0F3802020B19F
:1012800062480088FFF7A2FC03E061480088FFF78E
:101290009DFC002007F0F8F96088C0F3402020B1E1
:1012A0005A480088FFF792FC03E059480088FFF78E
:1012B0008DFC012007F0E8F96088C0F3002020B120
:1012C00052480088FFF782FC03E051480088FFF78E
:1012D0007DFC002007F0D8F9A078C0F3C00020B151
:1012E0004A480088FFF772FC03E049480088FFF78E
:1012F0006DFC012007F0C8F9A078C0F3C01020B140
:1013000042480088FFF762FC03E041480088FFF78D
:101310005DFC002007F0B8F9A078C0F3801020B180
:101320003A480088FFF752FC03E039480088FFF78D
:101330004DFC012007F0A8F9A078C0F3401020B1BF
:1013400032480088FFF742FC03E031480088FFF78D
:101350003DFC002007F098F9A078C0F3800020B190
:101360002A480088FFF732FC03E029480088FFF78D
:101370002DFC012007F088F9A078C0F3001020B1FF
:1013800022480088FFF722FC03E021480088FFF78D
:101390001DFC002007F078F9A078C0F3400020B1D0
:1013A0001A480088FFF712FC03E019480088FFF78D
:1013B0000DFC012007F068F9A07800F0010020B1D1
:1013C00012480088FFF702FC03E011480088FFF78D
:1013D000FDFB002007F058F92088C00B20B10B4816
:1013E0000088FFF7F3FB03E009480088FFF7EEFBF6
:1013F000012007F049F904480088FFF7E7FB0020C7
:1014000007F05EF9F8BD00002A0300202603002043
:101410002803002000214288C2F380321144428810
:10142000C2F3003211444288C2F380221144428840
:10143000C2F3002211448278C2F3C01211448278B0
:10144000C2F3401211448278C2F3001211440A46DA
:1014500001EBD2735B10A1EB430323B9428822F066
:101460000102428004E0428822F00102521C4280C4
:1014700000214288C2F3803211444288C2F34032D4
:1014800011444288C2F3802211444288C2F34022B0
:1014900011448278C2F3C01211448278C2F38012E0
:1014A00011448278C2F3001211440A4601EBD27350
:1014B0005B10A1EB430323B9428822F00202428071
:1014C00004E0428822F00202921C428000214288FD
:1014D000C2F3803211444288C2F340321144428840
:1014E000C2F3003211444288C2F3C0221144827810
:1014F000C2F3C01211448278C2F380121144827880
:10150000C2F3401211440A4601EBD2735B10A1EB07
:10151000430323B9428822F00402428004E0428857
:1015200022F00402121D428000214288C2F3803260
:1015300011444288C2F3403211444288C2F300325F
:1015400011444288C2F3C02211444288C2F380226F
:1015500011444288C2F3402211444288C2F300225F
:1015600011440A4601EBD2735B10A1EB430323B98C
:10157000428822F00802428004E0428822F00802F9
:1015800008324280704730B500234488C4F30D020E
:10159000002107E002F001040CB15C1CE3B2521020
:1015A0004C1CE1B20E29F5DB072B0BDD4488E4432C
:1015B000458864F30D054580048824F4004404F54F
:1015C0000044048030BD2DE9F04180460C461646AB
:1015D0001F460025210A0520FFF7DAFDE1B20620AB
:1015E000FFF7D6FD00BF05E0715D0420FFF7D0FDD9
:1015F000681CC5B2BD42F7DB0020BDE8F08170B5C4
:1016000006460C461546210A0520FFF7C1FDE1B24A
:101610000620FFF7BDFD290A0420FFF7B9FDE9B256
:101620000420FFF7B5FD002070BD70B506460C46DE
:101630001546210A0520FFF7ABFDE1B20620FFF7B2
:10164000A7FD29460420FFF7A3FD002070BD000080
:1016500010B50446012007F033F8002007F014F815
:101660000548008807F0CCFA012007F00DF80020AB
:1016700007F026F8002010BD2803002010B504460E
:1016800084210820FFF784FD002010BD10B504461A
:1016900085210820FFF77CFD002010BD70B50546B0
:1016A0000C461A480088C0EB00104600862108202E
:1016B000FFF76EFD16E005F075FF80B90120207080
:1016C0001249098801EB8101890001EB81014FF684
:1016D000FF7202EA4100FFF779FA002070BD232073
:1016E000FFF774FA301EA6F10106E4D120702846F7
:1016F000FFF7AEFF0549098801EB81014FF6FF7244
:1017000002EA8100FFF762FA0120E7E728030020E0
:1017100070B505460C461A480088C0EB001046001C
:1017200087210820FFF734FD16E005F03BFF80B964
:10173000012020701249098801EB8101890001EB29
:1017400081014FF6FF7202EA4100FFF73FFA0020E5
:1017500070BD2320FFF73AFA301EA6F10106E4D14E
:1017600020702846FFF774FF0549098801EB8101C5
:101770004FF6FF7202EA8100FFF728FA0120E7E73F
:101780002803002010B5044680210820FFF700FD43
:10179000002010BD70B505460C46264610210820D5
:1017A000FFF7F6FC11E005F0FDFE58B91049098875
:1017B00001EB81014FF6FF7202EA8100FFF706FAA2
:1017C000002070BD2320FFF701FA301EA6F10106AC
:1017D000E9D12846FFF73CFF0549098801EB810163
:1017E0004FF6FF7202EA8100FFF7F0F90120E8E707
:1017F0002803002010B50446012006F061FF0020F8
:1018000006F042FF41F27010FFF7E0F9002010BD32
:1018100070B505460C4621460A20FFF7B9FC0020AA
:1018200070BD70B505460C4621460420FFF7B0FC9C
:10183000002070BD10B50446012006F041FF0120D4
:1018400006F022FF002006F03BFF41F27010FFF788
:10185000BDF9002010BDF0B5AFB007460C46607A68
:101860008DF80C00207A8DF80D00E0798DF80E00CF
:10187000A0798DF80F0060798DF8100020798DF82F
:101880001100E0788DF81200A0788DF813006078D0
:101890008DF8140020788DF8150003A800F088F862
:1018A000054615B900202FB0F0BD0FA800F039FD96
:1018B00008B90020F7E70FA928466A68904706464E
:1018C000012E01D00020EEE729A92846AA689047FA
:1018D00023A92846EA6890470A2006A9152309AAE1
:1018E000CDE901070091194629A800F09DFD08B92E
:1018F0000020D8E706AA09A928462B69984706467A
:10190000012E00D1CFE70020CDE7000070B5012601
:10191000002517E0002410E0A01CC1B20020FFF752
:1019200077FF04EB8400094A02EB40013046FFF7E1
:1019300092FF08B9002070BD641C054800788442FD
:10194000EADB6D1C012DE5DB0120F4E71806002021
:10195000E9020020F8B5002405E0FF2012490855EF
:1019600012490C55641CB4F5D07FF6D30E4A4FF4DF
:10197000D071002000F01CFB08B90020F8BD002544
:101980000DE0012609484FF4D07300223146009043
:10199000012000F07BFB08B90020EFE76D1C012D52
:1019A000EFDB0120EAE700000008002060060020CD
:1019B00010B5044628482949086029484860294844
:1019C00088602948C86029480861294848610A2276
:1019D0000021284800F0E2FA1C220021264800F0ED
:1019E000DDFA1C220021254800F0D8FA1C22002133
:1019F000234800F0D3FA0C220021224800F0CEFA4E
:101A00004E220021204800F0C9FA1C2200211F4864
:101A100000F0C4FA24B10A222146164800F0B4FAB4
:101A20001448407800F0010000EB4000184901EB39
:101A3000C000184908601848184908600D484078E7
:101A400000F00100C0EBC000154901EBC0001549D2
:101A50000860024810BD0000CF230008A009002044
:101A6000C11E0008591E00088D1E0008851D0008B3
:101A7000091F0008B8090020C4090020E00900205F
:101A8000FC090020180A0020300A0020800A0020EB
:101A900008900008EC020020C4900008F00200202A
:101AA000DC900008F402002010B5FFF72FFF01289A
:101AB00005D10E4A0121002007F03EF803E007F0AF
:101AC00015F8002010BDFFF745FF012805D1074A92
:101AD0000121084607F030F803E007F007F800207E
:101AE000F0E707F033F80120ECE7000040060020A3
:101AF0002DE9F04F9DB0064689469246002700200A
:101B00000690B0460390CB468C490870002504E04F
:101B1000002009A94855681CC5B24545F8DB00BF3F
:101B2000002F02DD0020FFF7A9FD0020FFF72AFEAD
:101B30000896B046002504E000200DF80500681C5A
:101B4000C5B20A2DF8DBD5E09DF82000401EC0B2DA
:101B500008909DF820000921A1EBE000C4B21DF817
:101B600004004006000E0DF8040009A99DF820208D
:101B7000885C05F02AF900286AD105A9FFF78EFDD7
:101B800004A90020FFF7C4FD9DF81400012826D108
:101B90009DF81000012822D19DF8200007909DF8A3
:101BA0001C0005F04BF918B900201DB0BDE8F08FFE
:101BB0001DF8040000F0FE000DF804000020FFF7FF
:101BC0005DFD09A99DF81C208818012105F005F983
:101BD00009A99DF82020881805F00AF930E09DF841
:101BE0001400012813D19DF8100080B91DF80400DD
:101BF00000F0FE000DF804000020FFF73FFD09A9EA
:101C00009DF820208818012105F0E7F818E09DF8DC
:101C1000140098B99DF8100001280FD11DF8040098
:101C200040F001000DF804000020FFF72FFD09A986
:101C30009DF82020881805F0DBF801E00020B4E7CB
:101C400009A99DF820208818012105F0D6F829E07F
:101C50009DF820009DF81C10884202D108A805F0CC
:101C6000D7F809A99DF82020885C05F09EF848B1B6
:101C70001DF8040000F0FE000DF804000020FFF73E
:101C8000FDFC0FE009A99DF82020885C05F095F87F
:101C900040B11DF8040040F001000DF804000020E0
:101CA000FFF7F4FC9DF8200000BB06F0A3FF10B97D
:101CB0000120039006E007A805F0AAF89DF81C0093
:101CC00005F0BCF8002506E009A94819002105F037
:101CD00094F8681CC5B29DF81C008542F4DB09A984
:101CE0009DF81C208818002105F077F8A8F1010064
:101CF00000F0FF08B8F1000F3FF726AF002505E020
:101D00001DF805000BF80500681CC5B20A2DF7DBAD
:101D1000781CC7B20BF10A0B781CC0B206904FF4C6
:101D200020610020069AFFF780FC039800283FF40A
:101D3000F7AE8AF80070012037E700002403002086
:101D400010B5022005F090F806F012FF0020FFF712
:101D500051FD0020FFF76EFD074806F051FF074ACE
:101D600007495020FFF7C4FE18B906F0BFFE002057
:101D700010BD0120FCE7000040420F00E9020020F6
:101D800018060020F0B5A3B007460D46144605B16D
:101D900014B9002023B0F0BD1C22002102A800F0DD
:101DA000FDF81C22002109A800F0F8F818222049AB
:101DB00002A800F0E9F818221D491A3109A800F01C
:101DC000E3F816221B4910A800F0DEF80A221A498F
:101DD0000DF1560000F0D8F8202210A918A806F03E
:101DE0008DFC16480368164818A9026802A8FEF779
:101DF00027FE08B90020CDE715222946114800F03A
:101E0000C3F80A222146104800F0BEF820A80F4966
:101E100009680F4B0F4ACDE900100A490A4806F03D
:101E2000F9FEC6B2012E01D10120B3E70020B1E7CF
:101E3000300A0020800A0020B8090020F0020020AB
:101E4000F4020020FC090020180A0020EC02002007
:101E50009C0A0020E009002070B505460C460848A1
:101E600000F04AFA064A07480168074805F068FB8F
:101E700024B115220449204600F086F870BD000008
:101E8000B80A0020EC020020C409002070B5054605
:101E90000C46074B074808490268084805F06AFBEA
:101EA00024B115220549204600F06EF870BD0000EF
:101EB000B80A0020EC0200209C0A0020E009002063
:101EC00070B505460C4624B14E2221460B4800F061
:101ED0005BF8162204F13801094800F055F8152284
:101EE00004F13801074800F04FF80648007D00F083
:101EF000070004494861012070BD0000300A00203D
:101F0000800A00209C0A00202DE9F04385B081461C
:101F10000E4614461D46DDF830800EB104B11DB9E1
:101F2000002005B0BDE8F08315223146114800F0CD
:101F30002BF80A222146104800F026F80A222946EA
:101F40000E4800F021F802A80D4909680B4B0D4A14
:101F5000CDE900100749084806F05CFEC7B20A2226
:101F600002A9404600F010F8012F01D10120D8E766
:101F70000020D6E7FC090020180A0020240A0020CF
:101F8000EC020020E009002070B504460D4616461C
:101F9000324629462046FEF761F970BD70B5064607
:101FA0000C461546224629463046FEF777F970BDA5
:101FB0002DE9F04105460C4617464FF00008B5F5EF
:101FC000007F03DA05F5805086B202E00020BDE80C
:101FD000F081B4F5807F13DDA4F5807084B24FF4F6
:101FE00080733A4631460020FEF723FF08B10020F7
:101FF000EDE706F5807086B208F580701FFA80F86C
:1020000007EB0802234631460020FEF712FF08B115
:102010000020DCE70120DAE738B50446B4B11A49FC
:102020000020FFF7B7FB08B1002038BD6A4640F634
:1020300001410020FEF77AFF08B10020F5E79DF886
:10204000000000F00200E8B90020EEE76A4640F622
:1020500002410020FEF76AFF08B10020E5E70BE02F
:102060000F20FEF7B3FD6A4640F602410020FEF75E
:102070005DFF08B10020D8E79DF8000000F00200E5
:102080000028EDD10120D0E7A08601002DE9FF4F07
:1020900085B00F4690461C46DDF8489004AA40F6ED
:1020A00003410020FEF742FF18B1002009B0BDE84F
:1020B000F08F9DF8100040F0010004909DF8102072
:1020C00040F603410020FFF7B0FA04AA40F60341AE
:1020D0000020FEF72BFF08B10020E7E79DF8100075
:1020E00040F0020004909DF8102040F603410020CB
:1020F000FFF79BFA424640F606710020FFF77FFA91
:10210000C4F3C700039000265CE04FB304AA4FF469
:1021100040610020FEF70AFF08B10020C6E79DF8E5
:10212000100040F0030004909DF810204FF440612F
:102130000020FFF77AFA04AA40F601410020FEF7DA
:10214000F5FE08B10020B1E79DF8100040F0020054
:1021500004909DF8102040F601410020FFF765FA39
:10216000082240F608710020FFF75FFAF50009E049
:1021700019F8050002909DF808100020FFF751FBA8
:10218000681C85B2701CB5EBC00FF1DBC6B20398BA
:10219000401EC0B203903846FFF73EFF08B900204A
:1021A00084E701AA40F606710020FEF78BFE08B115
:1021B00000207BE708EBC600BDF80410884201D080
:1021C000002073E7039800289FD147B304AA4FF477
:1021D0004061FEF7ABFE08B1002067E79DF81000F4
:1021E00040F0030004909DF810204FF4406100205F
:1021F000FFF71BFA04AA40F601410020FEF796FE05
:1022000008B1002052E79DF8100040F00200049051
:102210009DF8102040F601410020FFF706FAE11773
:1022200004EB5171C910A4EBC101002931DDA346B3
:10223000E01704EB5070C010A4EBC000C2B240F62F
:1022400008710020FFF7F1F9F50009E019F8050021
:1022500002909DF808100020FFF7E3FA681C85B291
:10226000A542F3DB3846FFF7D7FE08B900201DE78B
:1022700001AA40F606710020FEF724FE08B10020F6
:1022800014E708EB0400BDF80410884201D00020D8
:102290000CE70598012818D1002514E008EB05018A
:1022A00088B202AA0121FFF783FE8246BAF1000F2D
:1022B00005D019F805009DF80810884201D00020CB
:1022C000F4E6681C85B2A542E8DB04AA40F60341A7
:1022D0000020FEF72BFE08B10020E7E69DF8100075
:1022E00020F0020004909DF8102040F603410020E9
:1022F000FFF79BF90120D9E670B50546002405E0FB
:10230000FDF79AFF45F82400601CC4B2052CF7DBEA
:1023100004E0002045F82400601CC4B2072CF8DB60
:1023200070BD2DE9F0410546002741F212574E23BA
:102330002A4639460020FEF77CFD10B10020BDE89A
:10234000F081002409E0C4F14D002E5C285DC4F149
:102350004D0168542E55601CC4B2272CF3DB0120BC
:10236000EDE72DE9F04188B006460F4690461D4640
:102370001A2301AA4FF4A0510020FEF75AFD18B10C
:10238000002008B0BDE8F081002406E0C4F1190087
:1023900001A9085C3055601CC4B2BC42F6DB2B4678
:1023A00001AA41F202610020FEF743FD08B10020BE
:1023B000E7E7002407E0281B401E01A9085C08F895
:1023C0000400601CC4B2AC42F5DB0120D9E77047C1
:1023D000F0B587B007460E460025002406E0002031
:1023E0000DF80500681CC5B2601CC4B2C6F11A0025
:1023F000A042F4DC344607E0601E385C0DF80500AE
:10240000681CC5B2601EC4B2002CF5DC1A236A46F3
:102410004FF498510020FFF7D6F810B9012007B00B
:10242000F0BD0020FBE700002DE9F84F0746884685
:1024300014461D46DDE90A9A0C9E41463846FFF7D0
:10244000C7FF56B36A464FF440610020FEF76EFDA9
:1024500010B10020BDE8F88F9DF8000040F00900A1
:1024600000909DF800204FF440610020FFF7DDF858
:102470006A4640F601410020FEF758FD08B10020F1
:10248000E8E79DF8000040F0080000909DF800206B
:1024900040F601410020FFF7C8F86A4640F60241C5
:1024A0000020FEF743FD08B10020D3E79DF80000AF
:1024B00040F0080000909DF8002040F60241002006
:1024C000FFF7B3F8B6B11F490020FFF763F908B171
:1024D0000020BFE76A4640F601410020FEF726FDD6
:1024E00008B10020B6E79DF8000000F00800E8B948
:1024F0000020AFE76A4640F602410020FEF716FDD5
:1025000008B10020A6E70BE00F20FEF75FFB6A464C
:1025100040F602410020FEF709FD08B1002099E7CE
:102520009DF8000000F008000028EDD153464A460F
:1025300029462046FFF715FF08B900208AE7012049
:1025400088E7000040420F0007480068401C064929
:10255000086006480068401C044908600448006898
:10256000401C034908607047B0020020B4020020FC
:10257000B802002010B57548006800F0010070B97D
:102580007248001D006840F001007149C1F8040262
:1025900000BF6E48006800F001000028F9D06D48C7
:1025A000006800F4007058B16A480830006840F4D0
:1025B000007068490831086041F64C5004F060FC36
:1025C0006548006840F400206349086040F6C41084
:1025D00004F056FC60480068604908405E490860A5
:1025E0005D481038006800F0300060B35A48103879
:1025F00000685B490840584910390860FEF7E2FA64
:102600005849B0FBF1F0401E53491039096841EABE
:1026100000405149103908604F480830006820F0E8
:1026200001004D49083108604B48006820F4003033
:102630004949086000BF4848001F006800F4607006
:10264000B0F5607FF7D14448006840F0010042498E
:1026500008600846006840F0100008604248091D04
:102660000860081F006840F04000091F0860084625
:10267000006820F0100008600846006840F48020E0
:10268000086000BF3448001F006800F00400002804
:10269000F8D03148006820F001002F49086000BFE1
:1026A0002D48001F006800F001000028F8D14FF00D
:1026B00001102E49086000202C4908310860091FCC
:1026C00008602A4914310860091D08600320274961
:1026D000103108602648091F0860264823491C312C
:1026E00008601D48006820F040001B49086022482F
:1026F000091D08604FF4166004F0C2FB1F4816491C
:10270000091D08604FF4616004F0BAFB1C481249CF
:10271000091D08604FF4965004F0B2FB19480E49A9
:10272000091D086041F2707004F0AAFB16480A49BE
:10273000091D08604FF4E15004F0A2FB00200B4992
:102740000839086000F022F810BD00000042005077
:10275000004000500044005014470050FDFFFEFFB1
:10276000CFFFF0FFA0252600002F0B010C460050E4
:102770000500010003002001002F0501002F0301C7
:10278000002F0201002F0101002F000170B5244924
:10279000096801F4803181B32249096801F001011F
:1027A00009B1214801E0FEF70DFA1E490C3909680C
:1027B00001F00401C1B11B49091F0968C1F303619C
:1027C0004E1C1849091F0968C1F306214D1C154903
:1027D000091F0968C1F306414C1C16FB04F1B0FB4C
:1027E000F1F101FB05F00AE00E49091F096801F04B
:1027F0007F014C1CB0FBF4F001E0FFE70A480849F8
:102800000968C9B2491CB0FBF1F00549091D096806
:1028100001F00101491CB0FBF1F00449086070BDF2
:102820000C4600501C47005000366E01C0FF0320CC
:1028300072B61249124A116000BF00BF00BFBFF359
:102840004F8F00BF00BF00BF62B60D4980310968DD
:1028500041F470010A4A8032116009490C3109685B
:1028600021F00801064A0C3211600649486920F03F
:102870000F0040F0040048617047000000000008AD
:1028800008ED00E00020005810B510225106044861
:10289000FDF7E4FCFFF7CCFFFFF76CFE10BD000076
:1028A000C4FF032010B50548006800F08FFBC4B2D8
:1028B0002146034800F044FF10BD000050020020F4
:1028C000A404002010B5024802F008F910BD000071
:1028D0006405002010B5024802F014F910BD000094
:1028E0006405002010B50548006800F06FFBC4B215
:1028F0002146034800F024FF10BD000070020020B4
:102900000405002010B50548006800F05FFBC4B264
:102910002146034800F014FF10BD000060020020B3
:10292000D404002010B50548006800F04FFBC4B285
:102930002146034800F004FF10BD00008002002083
:102940003405002070B50446102000F097FA2546A3
:102950001C48854203D1042000F0A4FA13E01A4871
:10296000854203D1082000F09DFA0CE0174885420B
:1029700003D1102000F096FA05E01548854202D1F7
:10298000144800F08FFA00BF25460E48854203D157
:10299000042000F093FA13E00B48854203D108208D
:1029A00000F08CFA0CE00948854203D1102000F0B9
:1029B00085FA05E00648854202D1064800F07EFA15
:1029C00000BF70BD00C00040000001400040014059
:1029D000004000480100001070B504460E46204635
:1029E000FFF7B0FF00BFE06840F48070E06000BF18
:1029F000256825F4404545EA8635256070BD0A689E
:102A000042618A88C2F34032120542600A7902F0BC
:102A10000F0242628A88C2F3032202628A88C2F3EA
:102A2000003282610A79C2F30312C262704770B544
:102A300003460C461546D3F8A8200A2C16D2DFE828
:102A400004F00506090A151515150D1100BF03211F
:102A500000200FE000BF0C2102200BE04FF440717A
:102A6000082007E04FF440610A2003E04FF4405192
:102A70000C2000BF00BF8A4305FA00F63243C3F8BA
:102A8000A82070BD0A46016821F0300141EA021118
:102A9000016070470246506AC84000F0010070476C
:102AA00030B58C1000F1100353F824308C07E50E7C
:102AB000F824AC40A3438D1000F1100444F82530F5
:102AC000436F4D000324AC40A3434367204B98421F
:102AD00002D0204B984205D1036E01248C40A343C1
:102AE000036624E0137803F0800303B353688B403C
:102AF0004360CC1000F1400353F824304C07E50E3E
:102B00000724AC40A343CD1000F1400444F8253025
:102B1000137A4C07E40EA340CD1000F1400454F8A2
:102B200025402343CD1000F1400444F825301378AC
:102B30008C07E40EA3408D1000F1100454F82540DA
:102B400023438D1000F1100444F8253030BD0000FF
:102B5000008E0248008F024830B58C0800F1100347
:102B600053F824308C07E50EF824AC40A3438D08BD
:102B700000F1100444F825308C0800F1100353F8DC
:102B800024308C07E40E02FA04F423438D0800F18C
:102B9000100444F8253030BD01228A40426070475D
:102BA0004FF480328A4042607047C26C0A43C2646C
:102BB00070470000026C01F4FE339A430264C26B5A
:102BC000024B0B409A43C263704700000000FC4177
:102BD000026C01F4FE331A430264C26B024B0B40D9
:102BE0001A43C263704700000000FC410146D1F85F
:102BF0000C2102F0E06212B94A6DD0B202E0D1F8C5
:102C00001C21D0B27047000070B504460D46204626
:102C100000F03AFA09486063A988204600F0ECF811
:102C20002046296800F0BEF84FF4A060A0634FF082
:102C3000FF30E0640020206470BD000003033F0704
:102C400010B50446D4F8080100F0E06078B900BF80
:102C5000204600F055FA8028FAD04FF40051204663
:102C6000FFF7A3FF4FF40070C4F8800003E04FF4B7
:102C70000070C4F8800110BD10B50446D4F80801F6
:102C800000F0E06078B900BF204600F039FA8028F3
:102C9000FAD04FF400512046FFF787FF4FF4407001
:102CA000C4F8800003E04FF44070C4F8800110BD08
:102CB0002DE9F04104460E46174646F4A065012F63
:102CC00001D145F00105D4F8080100F0E06068B9D1
:102CD00000BF204600F014FA8028FAD04FF40051CB
:102CE0002046FFF762FFC4F8805001E0C4F880512D
:102CF000BDE8F0812DE9F04104460E46174646F442
:102D00008065012F01D145F00105D4F8080100F0DC
:102D1000E06068B900BF204600F0F2F98028FAD0E0
:102D20004FF400512046FFF740FFC4F8805001E007
:102D3000C4F88051BDE8F08110B50446D4F808010C
:102D400000F0E06078B900BF204600F0D9F9802893
:102D5000FAD04FF400512046FFF727FF4FF4C06030
:102D6000C4F8800003E04FF4C060C4F8800110BDD7
:102D700070B505460C46D5F8080100F0E06068B96A
:102D800000BF284600F0BCF98028FAD04FF400516B
:102D90002846FFF70AFFC5F8804001E0C5F88041EA
:102DA00070BD000070B504460D46012610488542EE
:102DB0000BD8E06B20F40030E0630A22294620465D
:102DC00000F0BCF988B900260FE00A4885420BD80C
:102DD000E06B40F40030E06319222946204600F001
:102DE000ADF910B9002600E00126304670BD0000A4
:102DF000A0860100801A060001F4F842B2F5F04FF7
:102E000007D1CAB24FF47E4303EA41031A43C263B7
:102E100001E00A02C263704770B504460D46D4F85B
:102E2000080100F0E06078B900BF204600F068F9C2
:102E30008028FAD04FF400512046FFF7B6FE45F443
:102E40008070C4F8800003E045F48070C4F880010D
:102E500070BD70B504460025204600F051F900F021
:102E6000800008B1022507E00020216C21F00F014D
:102E70000143216400BF00BF284670BD01490860BE
:102E8000704700000446005000BF04480068044931
:102E9000096801F00101C84070470000C0FF03202D
:102EA0001446005010B5010F20F07042024B01EBA8
:102EB000410443F8242010BD4846005010B5010FCE
:102EC00020F07042024B01EB410443F8242010BD76
:102ED00014440050C26C0A43C26470470146D1F8E2
:102EE0000C2102F0E06212B94A6D90B202E0D1F812
:102EF0001C2190B27047000070B504460D46204674
:102F000000F0C2F8287920B902222046296800F092
:102F100015F9084860634FF4A260A063287918B9D6
:102F2000687940F00B00E0634FF0FF30E064E88820
:102F3000206470BD02013F0770B505460C460126AE
:102F4000FFF7A2FFB4EB500F06D802222146284615
:102F500000F0F4F800B90026304670BD01460022AA
:102F600000BF886B00F0800000F0800008B10222F2
:102F700007E000200B6C23F00F0303430B6400BF3A
:102F800000BF1046704770B504460E461546206CCB
:102F900065F387102064D4F8080100F0E06080B980
:102FA00000BF00BFA06B00F080008028F9D04FF474
:102FB00000512046FFF78EFF04F1800040F82560A5
:102FC00003E004F5C07040F8256070BD0146D1F8FB
:102FD0000C2102F0E06212B94A6D90B202E0D1F821
:102FE0001C2190B2704770B504460D46102620464D
:102FF00000F04AF8E87900B1EE79324620462968B7
:1030000000F09CF8A879401E4000012101EB560118
:1030100040EA0120401C40F44030E0632879401E23
:103020004FF4817141EA00606063687930B1616B8F
:103030006879401E41EA0040606305E0616B2879D1
:10304000401E41EA004060634FF4A060A0634FF06F
:10305000FF30E0642889206470BDD0F8082102F0B8
:10306000E0626AB900BF00BF826B02F08002802A72
:10307000F9D04FF40052C26400BFC0F8801001E0E4
:10308000C0F880117047000010B50446164884420D
:1030900002D01648844204D11348083000F0BAF830
:1030A00014E01348844202D01248844204D11048EC
:1030B000083000F0AFF809E00F48844202D00F4812
:1030C000844203D10C48083000F0A4F80320E060EB
:1030D00000BFE06800F001000028FAD0206C20F06A
:1030E0000F00206410BD00000000034000020340F8
:1030F0000000024800020248004002480042024824
:103100000146886B00F080007047000070B5D0F871
:103110000C4124F0E064C0F80C4141EA032444EA85
:10312000026444F08054D0F80C51034E35402C43D7
:10313000C0F80C4170BD0000C0C0FFEF2DE9FF5F7B
:1031400005460E461746642E3BD3002F39D0FFF7B5
:103150009BFE6421B0FBF1F003906420B6FBF0F617
:1031600001200290019040F2FF300090044615E0EB
:103170000398604306FB07F1B0FBF1F94FEA992A87
:10318000C9F3090BBAF5806F07D20098834504D2C2
:10319000CDF800B0CDF804A00294641E002CE7D155
:1031A000029840F400402861686909490840791E86
:1031B00040EA81210198401E41EA00406861A04632
:1031C00001E04FF00108404604B0BDE8F09F000068
:1031D000EF8000FC10B5836907248C40A34302FAFA
:1031E00001F42343836110BD70B5D0F8084124F089
:1031F000E064C0F8084141EA032444EA0264D0F8DC
:103200000851034E35402C43C0F8084170BD000002
:10321000C0C0FFF810B504460F48844206D1C01460
:10322000FFF740FEE014FFF749FE14E00B4884422C
:1032300006D10B48FFF736FE0948FFF73FFE0AE0CC
:103240000848844207D106488030FFF72BFE044827
:103250008030FFF733FE10BD08000340080002482D
:10326000800000100840024810B500F0A1F800F0FE
:10327000CDF800F0DDF900F06BF900F0F5F810BDC5
:1032800010B500211848FFF7A7FB174800F0C3FA54
:1032900000211548FFF7F6FB14491548FFF7AFFB6F
:1032A00040F6B731124800F007FB41F2F8511048E0
:1032B00000F000FB05210C4800F0FAFA00210C4850
:1032C00000F0B5FA002211460948FFF7B0FB0321D0
:1032D0002C2000F021FA2C2000F02CF900210248CB
:1032E00000F08FFA10BD000000C00040D08F000831
:1032F00000C1004010B500211848FFF76DFB1748CA
:1033000000F089FA00211548FFF7BCFB1449154865
:10331000FFF775FB40F6B731124800F0CDFA41F2E5
:10332000F851104800F0C6FA50210C4800F0C0FADD
:1033300000210C4800F07BFA012200210948FFF728
:1033400076FB03212D2000F0E7F92D2000F0F2F8A4
:103350000121024800F055FA10BD000000C00040F5
:10336000D08F000800C2004010B5104800684FF42C
:103370007A71B0FBF1F4601EB0F1807F01D30120BF
:103380000FE0601E4FF0E02148613F214FF0FF3019
:1033900000F0C2F900204FF0E021886107200861A9
:1033A000002008B100BFFEE710BD0000C0FF0320F1
:1033B00010B5114911480068FFF715FE01220021E0
:1033C0000E48006800F043FA0C48006800F00CF961
:1033D00010200B4908700A4604210A48FFF760FBD9
:1033E000012009494860902008700A4605210548D7
:1033F000FFF756FB10BD00005402002050020020D1
:103400009803002000810248A403002010B5114950
:1034100011480068FFF7E7FD032200210E4800680D
:1034200000F015FA0C48006800F0DEF810200B4997
:1034300008700A460C210A48FFF732FB01200949AF
:103440004860882008700A460B210548FFF728FBD2
:1034500010BD00006402002060020020B0030020C4
:1034600000830248BC03002010B54FF480411E4881
:10347000006800F0D5F9052208211B480068FFF715
:10348000A9FE4FF400411848006800F0C9F9052270
:103490000C2115480068FFF79DFE0621592000F019
:1034A00013F9592000F02CF84FF480410F480068C0
:1034B00000F0B6F9042208210C480068FFF78AFEE4
:1034C0004FF400410948006800F0AAF904220C21D9
:1034D00006480068FFF77EFE0721642000F0F4F83C
:1034E000642000F00DF810BD5002002060020020A2
:1034F0000421026C22F00F020A43026400BF7047ED
:10350000002809DB00F01F020121914042099200CE
:1035100002F1E022C2F800117047002809DB00F038
:103520001F02012191404209920002F1E022C2F8FB
:1035300000117047002809DB00F01F0201219140B3
:103540004209920002F1E022C2F800117047000027
:1035500010B5204920480068FFF745FD00221146BC
:103560001D48006800F073F91B48006800F03CF843
:1035700010201A4908700A4604211948FFF790FAEA
:10358000012018494860902008700A460521144817
:10359000FFF786FA4FF480410F48006800F040F9C9
:1035A000052208210C480068FFF714FE4FF4004183
:1035B0000948006800F034F905220C21064800682B
:1035C000FFF708FE05215F2000F07EF85F20FFF77F
:1035D00097FF10BD7402002070020020C803002075
:1035E00000800248D4030020016C21F00F01891CE7
:1035F00001647047002817DB00F01F020121914091
:103600000A4A430942F8231000BF00BF00BFBFF3BE
:103610004F8F00BF00BF00BF00BF00BF00BFBFF3A0
:103620006F8F00BF00BF00BF7047000080E100E067
:1036300010B5204920480068FFF7D5FC0222002180
:103640001D48006800F003F91B480068FFF7CCFF35
:1036500010201A4908700A4607211948FFF720FA76
:10366000012018494860902008700A460821144833
:10367000FFF716FA4FF480410F48006800F0D0F8C9
:10368000052208210C480068FFF7A4FD4FF4004113
:103690000948006800F0C4F805220C2106480068BB
:1036A000FFF798FD0421652000F00EF86520FFF774
:1036B00027FF10BD8402002080020020E0030020CC
:1036C00000830248EC03002010B5002804DB8A06C2
:1036D000130E054A135406E08A06140E034A00F03E
:1036E0000F031B1FD45410BD00E400E018ED00E0F0
:1036F00010B5002804DB8A06130E054A135406E0B1
:103700008A06140E034A00F00F031B1FD45410BD89
:1037100000E400E018ED00E010B5002804DB8A06A4
:10372000130E054A135406E08A06140E034A00F0ED
:103730000F031B1FD45410BD00E400E018ED00E09F
:1037400070B504460D4694F82E0030B9FA2D04D118
:10375000012084F82E00257152E094F82E000128F3
:1037600006D1FB2D04D1022084F82E00657147E0BC
:1037700094F82E00022806D1F12D04DA032084F8F3
:103780002E00A5713CE094F82E0003280BD1322DB9
:1037900009DA042084F82E00E57184F82C5000200A
:1037A00084F82D002CE094F82E00042815D194F80C
:1037B0002C00002811DD14F82C0F401E20706078BA
:1037C000411C61702C3C001D211D0D5494F82C00EF
:1037D000B0B9052084F82E0012E094F82E000528D8
:1037E0000BD1002084F82E0094F82D00001D211D1F
:1037F0000D54204600F0C4F902E0002084F82E00A9
:1038000070BDC26801238B401A43C2607047012219
:103810008A4042607047C16841F48071C16070475E
:10382000026C0A43026470470146886C7047D0F806
:10383000A42001238B401A43C0F8A4207047C26C17
:103840000A43C2647047C26C0A43C264704710B531
:1038500000F11C0353F8213023F0500400F11C0345
:1038600043F8214000BF53F8213023F007031343EE
:1038700000F11C0444F8213000BF10BD10B500F168
:103880001C0353F8213023F00703134300F11C04F9
:1038900044F8213010BD10B500F11C0353F821305D
:1038A00023F00703134300F11C0444F8213010BD3A
:1038B0000161704741637047C16370470146886B7F
:1038C00000F0800070478166704700BF436923F0B5
:1038D00050430B431343436100BF70472DE9F04150
:1038E00007460C461546264604E016F8011B3846E6
:1038F000FFF7B3FB281EA5F10105F6D1BDE8F08165
:10390000044A116800BF0A18024B1B689A42FAD891
:1039100070470000B00200202DE9F041064640F259
:10392000F517FA2044490870FB2048700846867055
:103930004248007800EB40004000801CC8704048BE
:10394000007808713D4800784871002057E03B49F5
:10395000891C31F810100C1200EB40014900891D40
:10396000354A54543549891C11F8104000EB400188
:103970004900C91D54543149103101EB800191EDCA
:10398000000ABCEEC00A10EE101A0C0E00EB40014B
:103990004900083154542949103101EB800191ED5F
:1039A000000ABCEEC00A10EE101AC1F3074400EB87
:1039B00040014900093154542049103101EB800184
:1039C00091ED000ABCEEC00A10EE101AC1F30724F4
:1039D00000EB400149000A3154541849103101EB01
:1039E000800191ED000ABCEEC00A10EE101ACCB2B4
:1039F00000EB400149000B315454411CC8B20F493F
:103A000009788142A3DC0D48007800EB40004000BB
:103A1000801DC5B2022004E00749095C0F44411C27
:103A2000C8B2A842F8DB04494F556A1C0548006833
:103A3000FFF754FFBDE8F081480400207C0400201B
:103A4000230000206002002070B52DED028B41F2B2
:103A500088343A4802783A493A4800F06FFC3A49CB
:103A600008803A48056813E03448027834493548FC
:103A700000F064FC34490880C820FFF741FF281992
:103A800032490968884203D20020BDEC028B70BD28
:103A90002D4800880028E7D1294800680028E3DB8A
:103AA000274800682828DFDC25480068FCF7B7FDB8
:103AB00041EC180B9FED260B53EC102BFCF727FC69
:103AC000254A03C2214805681C48027823491D483D
:103AD00000F034FC2249088011E0184802781F49A0
:103AE000184800F09AFC184908806420FFF708FF86
:103AF000281916490968884201D20020C5E71248F2
:103B000000880028E9D11548006816498842E4DB9E
:103B10001248006814498842DFDC10480068FCF74E
:103B20007EFD41EC180B9FED110B53EC102BFCF7B5
:103B300007FD104A03C20120A7E70000480000204B
:103B4000080000204803002016000020B0020020DA
:103B50006666666666127140400000201000002014
:103B600018000020A0860100B0AD01000000000098
:103B700000408F40300000200160027143717047A7
:103B800070B504460025002005E0211D095C29448C
:103B90008DB2411CC8B294F82D10091D8142F4DC8D
:103BA0002846E91705EB11610912A5EB01218DB239
:103BB00094F82D00001D211D085CA84200D070BDA6
:103BC000A07930B101280CD0032812D010285FD181
:103BD0001CE0002032490870207A40B23149087058
:103BE0005AE001202E490870207A40B22D49087011
:103BF00052E000202A4908702B48B0F900002B49F8
:103C00000880207A40B22749087045E0207A284988
:103C10000870002038E000EB40014900891D221D9A
:103C2000535C00EB40014900491D515C43EA01220D
:103C30001F49891C21F8102000EB40014900C91DD3
:103C4000221D515C0B0600EB400149000831515C1C
:103C500043EA014300EB400149000931515C43EA6A
:103C6000012100EB400252000A32231D9A5C1143ED
:103C700000EE101AB8EE400A0D49103101EB800138
:103C800081ED000A411CC8B2217A8142C3DC03E005
:103C900008A001F027FC00BF00BF00BF8FE70000B5
:103CA00014000020220000201A0000202000002024
:103CB0007C0400206F74686572730000002101604D
:103CC0004162816280F82C1080F82D1080F82E104F
:103CD00070472DE9F84304460E46154606F00706E0
:103CE00005F0070537012F43207A802101EAC01033
:103CF00007433A460721204600F090FD8046B8F180
:103D0000000F03D04FF0FF30BDE8F883032D09D931
:103D100003200823092201210090204600F04BFBDC
:103D2000804608E003200823092200210090204655
:103D300000F041FB8046B8F1000F02D12671657199
:103D40000AE02079B04202D16079A84204D06279B9
:103D500021792046FFF7BDFF4046D5E730B585B055
:103D600004466B4612221021204600F0F2FC054664
:103D7000122D03DA4FF0FF3005B030BD9DF8000082
:103D800000019DF8011040EA1110E060A08900F4E4
:103D9000006018B1E068A0F58050E060E06840087D
:103DA000E0609DF802009DF8011001F00F0140EA6B
:103DB00001202061208A00F4006018B12069A0F57C
:103DC000805020619DF8030000039DF8041040EA34
:103DD00001109DF8051040EA11106061606900F45F
:103DE000002018B16069A0F5801060619DF80500A1
:103DF0000007000B9DF8061040EA01209DF807100F
:103E00000843A061A06900F4002018B1A069A0F5E2
:103E10008010A0619DF809009DF8081040EA01207B
:103E2000E061A08B00F4004018B1E069A0F580309B
:103E3000E0619DF80B009DF80A1040EA0120206225
:103E4000208C00F4004018B1206AA0F58030206278
:103E50009DF80D009DF80C1040EA01206062A08CD6
:103E600000F4004018B1606AA0F5803060629DF8EF
:103E70000F009DF80E1040EA0120A062208D00F492
:103E8000004018B1A06AA0F58030A0629DF8110032
:103E90009DF8101040EA0120E062A08D00F400407F
:103EA00018B1E06AA0F58030E062002064E738B520
:103EB0000446607810B16FF0010038BDA5220E21D4
:103EC000204600F0ABFC96220F21204600F0A6FC15
:103ED00002226221204600F0A1FC00220E21204691
:103EE00000F09CFC00220F21204600F097FC694660
:103EF000204600F01AFA0020DFE7F8B506460D4626
:103F0000002000906B4603220021304600F021FC87
:103F10000746032F02D04FF0FF30F8BD9DF8000098
:103F200000049DF8011040EA01209DF8021040EACB
:103F3000010404F4000008B1A4F180742146304665
:103F400000F046F828600020E7E700002DE9FC417A
:103F500004460D4694F8380018B14FF0FF30BDE824
:103F6000FC8125F080050323002211496846FFF7F4
:103F700003FE0646606CD6E9001201F0A5F994F83C
:103F80004800002102F088FF45F08001606C01F0DC
:103F900071FAFF21606C01F06DFA074694F8480051
:103FA000012102F079FF606C01F08DF93846D6E707
:103FB000A086010030B5034601F0070102F00702B8
:103FC0001420884055181024AC40204480B230BDE5
:103FD00030B52DED108B89B004460D462846FCF710
:103FE0001EFB41EC180BE1794A4A52F82100FCF71C
:103FF00016FB41EC190B53EC192B51EC180BFCF789
:104000009FFA41EC180BA06AFCF709FB41EC1F0B6F
:1040100053EC182BFCF722FA41EC1D0B206AFCF73D
:10402000FEFA41EC1E0B53EC1D2BFCF770F941EC32
:104030001C0B53EC182BFCF711FA41EC1A0BE0693E
:10404000FCF7EDFA41EC1B0B53EC1A2BFCF75FF974
:1040500041EC190B94ED0C1BB0EE410AF0EE610A35
:1040600053EC102BFCF7FAF9CDE90601E06AFCF7F6
:10407000D6FA53EC182BCDE900019DED000B51EC65
:10408000100BFCF7EBF941EC1F0B606AFCF7C7FA69
:1040900053EC1F2BCDE902019DED020B51EC100BEF
:1040A000FCF735F941EC1E0B53EC182BFCF7D6F955
:1040B00041EC1C0BA069FCF7B2FA41EC1D0B53EC70
:1040C0001C2BFCF724F941EC1B0B53EC182BFCF7D1
:1040D000C5F941EC190B6069FCF7A1FA41EC1A0B28
:1040E00053EC192BFCF713F9CDE904019DED060BF8
:1040F00053EC102B9DED040B51EC100BFCF707F962
:1041000041EC180B51EC180BFCF7A7FA09B0BDEC09
:10411000108B30BDB08F00082DE9FC4104460D46E0
:1041200016461F4694F8380018B14FF0FF30BDE82E
:10413000FC810FB90020FAE725F080050323002257
:1041400016496846FFF718FD8046606CD8E90012F2
:1041500001F0BAF894F84800002102F09DFE45F005
:104160008001606C01F086F94FF0000809E0FF2142
:10417000606C01F07FF907F8080008F1010000F019
:10418000FF08B045F3DB94F84800012102F084FEFB
:10419000606C01F098F83046C9E70000A086010085
:1041A0002DE9FC4104460D4616461F4694F838009A
:1041B00018B14FF0FF30BDE8FC8125F080050323E6
:1041C000002216496846FFF7D7FC8046606CD8E9A4
:1041D000001201F079F894F84800002102F05CFE2A
:1041E0002946606C01F046F93146606C01F042F9F5
:1041F00094F84800012102F04FFE606C01F063F872
:104200000FB90020D7E72946204600F077FAB042E0
:1042100001D10020CFE74FF0FF30CCE7A0860100AE
:104220002DE9F84304460E46154606F0070605F04C
:1042300007054FEA061848EA0508424606212046C7
:1042400000F0ECFA07461FB14FF0FF30BDE8F883ED
:10425000032D09D9022004230922012100902046C0
:1042600000F0A9F8074608E00220042309220021F3
:104270000090204600F09FF8074617B9A671E57137
:104280000AE0A079B04202D1E079A84204D0E279F4
:10429000A1792046FFF7C4FF3846D7E72DE9F04162
:1042A00004460F46607818B16FF00100BDE8F08158
:1042B0002078012809D002280FD1052320220821C7
:1042C000204600F064F805460AE004231022082185
:1042D000204600F05CF8054602E06FF00200E5E7DA
:1042E00000BFB5F1FF3F03D02DB1012D1AD105E07C
:1042F0004FF0FF30DAE76FF00300D7E726780020B1
:104300002070012E06D0022E09D13946204600F039
:104310006AF9CBE739462046FFF7EFFDC6E74FF0D5
:10432000FF30C3E74FF0FF30C0E770B504460D46DD
:1043300062792946204600F001F870BD2DE9F04170
:1043400005460F4616463146284600F08FF80446CB
:1043500014B12046BDE8F0816A7900212846FFF7B4
:1043600029FE0A21B0FBF1F0B0FBF1F84046FFF75F
:10437000C7FA0120FFF7C4FA39462846FFF78EFF37
:10438000044614B1284600F056F92046E2E72DE92C
:10439000F0410746884615461E464146384600F01D
:1043A000ADF90446002C02DA2046BDE8F08104EAAB
:1043B00005003041F9E72DE9FC4104460D4616465B
:1043C0001F46DDF8208000203B4632462946CDE9D5
:1043D0000080204600F002F8BDE8FC812DE9F0479E
:1043E00080460E4617461C46DDE9089A3946404687
:1043F00000F084F90546002D02DA2846BDE8F08772
:10440000E8B2A04306FA09F1214040EA010253460E
:104410003946404600F00DFAF0E72DE9F041054637
:104420000F4616463146284600F040F8044614B1BF
:104430002046BDE8F081EA7900212846FFF7BAFD61
:104440000A21B0FBF1F0B0FBF1F84046FFF758FA53
:104450000120FFF755FA39462846FFF71FFF0446AB
:1044600014B1284600F0E7F82046E2E770B50446AC
:104470000D46607810B16FF0010070BD207810B16A
:104480006FF00200F9E76079A84208D02A460021BF
:104490002046FFF71EFC10B14FF0FF30EDE7002380
:1044A00001221946204600F0A3F9E6E770B504465C
:1044B0000D46607810B16FF0010070BD207810B12A
:1044C0006FF00200F9E7E079A84208D02A460021FF
:1044D0002046FFF7A5FE10B14FF0FF30EDE70123B6
:1044E00000221146204600F083F9E6E710B50446A5
:1044F000204600F0A0F810BD2DE9FC410446002341
:104500000F220D212046FFF742FF07461FB1012071
:104510006070BDE8FC81A7700423F0220D212046C5
:10452000FFF735FF0646002E02DA01206070F0E743
:10453000E6700723802228212046FFF728FF054642
:10454000002D02DA01206070E3E725720720E9B24E
:104550008023024600902046FFF72DFF002802DA54
:1045600001206070D5E72046FFF7F8FB002802DA4B
:1045700001206070CDE7204600F05DF803220221A3
:104580002046FFF7A6FB032202212046FFF748FE44
:1045900001A92046FFF7C9FE204600F04CF820464E
:1045A000FFF785FC00BFB4E770B504460D467722DF
:1045B0002946204600F001F870BD70B504460D464E
:1045C000164600206070012084F83800E56384F806
:1045D0004060E06B00F01CFD0520FFF791F92046DC
:1045E000FFF78AFF70BDF8B506460D460020009023
:1045F0006B4603221146304600F0ABF80746032F06
:1046000002D04FF0FF30F8BD9DF8000000049DF887
:10461000011040EA01209DF8021040EA010404F470
:10462000000008B1A4F180742146304600F02AF859
:1046300028600020E7E738B50546687810B16FF0CC
:10464000010038BD0021284600F0BAF804460CB13C
:104650002046F6E701200223092201460090284661
:10466000FFF7A9FE0446002C01DA2046E9E7012005
:1046700002230922002100902846FFF79CFE0446F1
:104680002046DEE770B52DED088B04460D46284622
:10469000FBF7C5FF41EC180B6179174A52F821006E
:1046A000FBF7BDFF41EC190B53EC192B51EC180B28
:1046B000FBF746FF41EC180B84ED0C8B2069FBF7F0
:1046C000AEFF41EC1B0B53EC182BFBF7C7FE41EC84
:1046D000190BE068FBF7A3FF41EC1A0B53EC192B05
:1046E000FBF715FE41EC180B51EC180BFBF7B5FF6F
:1046F000BDEC088B70BD0000B08F000870B504469B
:104700000D4694F8380020B929462046FFF71EFCD4
:1047100070BD94F84010E06B00F02CFBE06B01687A
:104720000A68294690470021E06B00F03DFA94F8B2
:10473000401001231A46E06B00F0CAF8002805DD9E
:10474000E06B0268D168884700B2E1E74FF0FF30C4
:10475000DEE72DE9F0470446884691461D4694F869
:10476000380038B92B464A4641462046FFF7D4FC6C
:10477000BDE8F0870DB90020FAE794F84010E06B2F
:1047800000F0F8FAE06B01680A68414690470021A2
:10479000E06B00F009FA94F8401001234A46E06B00
:1047A00000F096F80646002706E0E06B0268D16844
:1047B0008847E855781C07B2B742F6DB3046D7E7A2
:1047C00070B505460C4604F00704032C01D0042CF8
:1047D00002D14FF0FF3070BD22460821284600F07C
:1047E0001DF810B14FF0FF30F5E72C700020F2E714
:1047F0002DE9F04107460C4615461E46E007400FDE
:1048000005F0010140EA410006F0010140EA01081B
:1048100041463846FFF7D4FFBDE8F08170B5044645
:104820000D461646002332462946204600F001F880
:1048300070BD2DE9F04104460F4615461E4694F81A
:10484000380038B933462A4639462046FFF7A8FCD7
:10485000BDE8F08194F84010E06B00F08BFAE06B5B
:1048600001680A6839469047E06B01680A68294682
:104870009047E06B00F020FA10B14FF0FF30E7E70F
:104880000EB90020E4E739462046FFF737FFA8427B
:1048900001D10020DCE74FF0FF30D9E70121417062
:1048A000704710B504462046FFF720FE204610BD95
:1048B000054901600021416000BF044901604FF4D7
:1048C0007A7181607047000050950008609500087B
:1048D0002DE9FC4105460E4617461C4600200346BE
:1048E0003A463146CDE90004284600F003F8BDE819
:1048F000FC8100002DE9F05F04468A461546994682
:10490000DDE90A6B5146204600F034FA202D00DD27
:104910002025002E1DDD032E00DD032607E0F0001C
:1049200029FA00F0C1B22068026820469047301E84
:10493000A6F10101CEB2F2DC0021204600F034F9EC
:104940005F4A12785100226910680122FEF7B0F91F
:1049500016E05C48007858B1594A12785100226933
:1049600010680122FEF7A4F900205649087007E0FC
:10497000534A12785100226910680122FEF7BAF9F1
:104980004FF0000836E021690868FEF759F941F256
:1049900088304D49088000BF21690868FEF744FF50
:1049A0000746207D012802D04748008840B90020F2
:1049B000207520684169204688470020BDE8F09FA7
:1049C00041480088401E4049088007F440400028C4
:1049D000E2D0216908684FF44041FEF730FF2169B9
:1049E0000868FEF703F9394901F8080008F10100E9
:1049F00000F0FF08681E4045C5DC21690868FEF725
:104A00003BF941F288303049088000BF21690868CD
:104A1000FEF70AFF0746207D012802D02A480088B9
:104A200038B9002020752068416920468847002059
:104A3000C4E725480088401E2349088007F4404009
:104A40000028E3D0216908684FF44041FEF7F7FEE3
:104A500021690868FEF7CAF8691E1C4A5054BBF168
:104A6000000F23D021690868FEF766F941F288300B
:104A70001549088014E0207D012802D012480088E2
:104A800048B9002020750F49087020684169204608
:104A90008847012092E70C480088401E0A49088098
:104AA00021690868FEF70AFF8028E4D00020084941
:104AB00008700848057000200749087028467DE7FF
:104AC00095020020910200209A0200207C0500201F
:104AD00092020020930200209902002010B50446A3
:104AE00021690868FEF782F80449054A127888545B
:104AF00003480078401C0249087010BDBC05002026
:104B00009802002070B5044621690868FEF78CFE03
:104B100005462248007830B105F4166000283CD0E4
:104B20000120207539E005F4146068B1012020757A
:104B3000216908680221FEF7C6FE216908684FF462
:104B40001461FEF77CFE28E005F0800090B1216939
:104B500008688021FEF773FE11480678002010498E
:104B6000087032460F49204600F0AEF8204600F0AB
:104B7000EBF812E005F0100078B121690868102107
:104B8000FEF75DFE064806780020054908703246AB
:104B90000449204600F098F800BF70BD9002002044
:104BA00098020020BC0500202DE9F04104460F4684
:104BB0003A4A12785100226910680022FEF79AF8EA
:104BC000002631E0364A915D22691068FEF7D0F880
:104BD00041F288303349088000BF21690868FEF738
:104BE00023FE0546207D012802D02E48008850B9BA
:104BF000002020752C4908702068416920468847AC
:104C00000120BDE8F08127480088401E2549088022
:104C100005F400700028E0D0216908684FF40071A5
:104C2000FEF70DFE701CC6B2204800788642C9DB34
:104C30003FB321690868FEF77FF841F288301949CF
:104C4000088014E0207D012802D01648008848B969
:104C50000020207514490870206841692046884763
:104C60000120CEE70F480088401E0E4908802169C8
:104C70000868FEF723FE8028E4D000200A49087067
:104C800002E001200849087000200949087007491E
:104C900008700849087000BFB3E7000095020020C3
:104CA0009C0500209A02002091020020970200201B
:104CB000960200209902002010B5044601212046EA
:104CC000FFF772FF10BD000070B504460E46154692
:104CD0001948006800B970BD18480078184909786B
:104CE000884200DAF7E7002004E0315C154A1154ED
:104CF000411CC8B2A842F8DB0020104908701048D7
:104D0000057028460C490968884721690868FDF73D
:104D10006DFF21690868FDF769FF216908684FF494
:104D20004041FDF755FF216908684FF41001FDF778
:104D30004FFF00BFCFE70000A0020020920200203A
:104D4000930200207C05002010B504460648006848
:104D500000B910BD002005490870054908700248D7
:104D60000068804700BFF4E79C0200209602002004
:104D70009702002070B504460D4620690068006C5B
:104D800000F00F0004280BD00E48007818B10E4830
:104D900000F03EF904E00D4801780B4800F0A0F85F
:104DA00001200B4908700B48057000200A49087063
:104DB0000A490870216908684FF0FF31FEF73FFD8E
:104DC00070BD0000900200206405002094020020C5
:104DD00099020020950200209602002097020020F0
:104DE0003EB5044620690068006C00F00F000428FE
:104DF00056D10020009001900290C0208DF8000054
:104E00000120019021690868FEF723F82269117CCE
:104E1000D0686A46FDF744FE226992F82410106AB1
:104E20006A46FDF73DFE2169002208681146FEF73B
:104E300025FD2169002208680121FEF71FFD216977
:104E400091F93C00FEF7D6FB216908681549FDF78A
:104E5000B1FE1548007880B9216908684FF4100147
:104E6000FDF7A8FE216991F93600FEF7C3FB216921
:104E700008684FF44041FDF79DFE206841692046D7
:104E8000884721690F23002208681021FEF7ACF93A
:104E900021690F23002208681146FEF737F900BF89
:104EA0003EBD0000000860019002002001464FF066
:104EB000FF30084A1278084B1B789A4208DA074AF2
:104EC000044B1B78D05C034A1278521C014B1A70B9
:104ED0007047000092020020930200207C05002011
:104EE00070B504460D4620690068006C00F00F00A4
:104EF000012802D13E4800F005FA00203D49087023
:104F00003D4805702269111D1068FDF77DFE21697D
:104F100091F8342008680021FEF7B0FC216991F86F
:104F2000352008680121FEF7A9FC236903F114026A
:104F3000197CD868FDF7B4FD236903F1280293F8C2
:104F40002410186AFDF7ACFD21698A6B08680821F6
:104F5000FEF740F921698A6B08680C21FEF73AF9DF
:104F600021690A6C08681021FEF734F9216991F96A
:104F700036000321FEF7BCFB216991F93600FEF7EC
:104F8000CCFA216991F93C000321FEF7B1FB2169BC
:104F900091F93C00FEF7C1FA690022691068FDF73B
:104FA0002BFF21690868FDF721FE21690868FDF7DC
:104FB0001DFE216908681149FDF70AFE216908688C
:104FC0004FF44041FDF704FE216908684FF41001D9
:104FD000FDF7FEFD21690868FEF78AFA00200849FE
:104FE000087008490870084908700849087070BDC1
:104FF000DC050020900200209402002000084001FF
:1050000092020020930200209602002097020020C6
:1050100010B5044620690068006C00F00F000128FC
:1050200002D12D4800F06EF901202C4908700020B3
:1050300020752B4908702B4908702B4908702B49A3
:1050400008702269111D1068FDF7DEFD216991F8D5
:10505000342008680021FEF711FC216991F8352001
:1050600008680121FEF70AFC21690F230422086861
:105070001021FEF7B9F821690F23042208680021E6
:10508000FEF744F8236903F11402197CD868FDF790
:1050900007FD236903F1280293F82410186AFDF72D
:1050A000FFFC21690A6C08681021FEF793F821695A
:1050B00091F93C000321FEF71BFB216991F93C00AB
:1050C000FEF72BFA216908680949FDF781FD21697E
:1050D0000868FEF70DFA10BDDC05002090020020E4
:1050E00092020020930200209602002097020020E6
:1050F0000008600110B504461348007801280ED15D
:10510000216908684FF48041C0F8181100BF216977
:1051100008684FF40041C0F8181100BF07E021698A
:105120000868FDF763FD21690868FDF75FFD2169E7
:1051300008680221FEF7C7FB216908684FF0FF31BC
:10514000FEF77DFB10BD00009002002070B5044604
:105150000D462B48007898B12A480078202801DBBA
:10516000002070BD2848294909784554274800780F
:10517000401C2649087008460078224908703CE027
:1051800020690068006C00F00F0004280BD0204854
:10519000007818B11F48FFF73BFF04E01E48017874
:1051A0001C48FFF79DFE216908680221FEF78BFB72
:1051B000216908682946FDF72FFE41F2883017491A
:1051C000088014E0207D012802D01448008848B9E6
:1051D00000202075124908702068416920468847E0
:1051E0000020BEE70D480088401E0C490880216958
:1051F0000868FEF763FB8028E4D00120B1E70000D7
:1052000099020020970200209C05002096020020B1
:105210009002002064050020940200209A020020E1
:105220009102002010B504462046FFF741FB0446DA
:105230000248206002482061204610BD8095000889
:105240004C0000200A46012A07D1036819684B6BFD
:1052500023F001034B6300BF07E0036819684B6B41
:1052600043F001034B6300BF00BF704770B50446B5
:105270000D4635B1012D0CD0022D11D0032D1FD1BB
:1052800016E02168002208684FF00041FEF71DFB80
:1052900017E02168002208681146FEF716FB10E0AF
:1052A0002168002208684FF04041FEF70EFB08E03D
:1052B0002168002208684FF08041FEF706FB00E0FD
:1052C00000BF00BF70BD704737B504462068006856
:1052D000006C00F00F00012802D0094800F0A6F889
:1052E0009DF808102046FFF7ADFF9DF809102046F5
:1052F000FFF7BCFF019922681068FDF71DFE3EBD57
:10530000DC05002010B586B0044620680068006CFB
:1053100000F00F00012839D100200390049005907F
:105320008DF80C0001200490002000900190029064
:1053300080208DF800004002019021680868FDF788
:105340000DFE226892F82410106A03AAFDF7A8FB4C
:105350002268117CD0686A46FDF7A2FB226892F8A9
:105360003C10906B6A46FDF79BFB20680068C069A3
:1053700020F0100040F0400021680968C8612168F1
:10538000002208681146FEF786FA00BF002020714F
:1053900006B010BD2DE9F0410446207908B1BDE802
:1053A000F0812268111D1068FDF7A6FD2068002617
:1053B00090F83470056805F11C0050F8260020F0C4
:1053C000400040F0100105F11C0040F826103A465C
:1053D00031462846FEF75FFA00BF236803F1280232
:1053E00093F82410186AFDF75BFB236803F114029D
:1053F000197CD868FDF754FB236803F1400293F849
:105400003C10986BFDF74CFB216808680121026C89
:1054100022F00F020A43026400BF00BF0020607147
:10542000A071A0600120207100BFB8E710B504464C
:1054300020680068006C00F00F00042802D10B48BF
:10544000FFF7CEFC2046FFF7A5FF0948017920466B
:10545000FFF7F8FE064841792046FFF707FF044AA8
:10546000116822681068FDF767FD10BD6405002013
:10547000A802002070B504460D4600262168086881
:10548000FDF72CFD21680868FDF728FD2168002242
:1054900008682946FDF777FD00BF21680868816C20
:1054A00001F480500028F8D0216808684FF480513A
:1054B000FEF7C9F900BF21680868016D01F4C04119
:1054C0000029F8D021680868FDF708FDC6B22168F8
:1054D00008684FF44041FEF7B6F9304670BD0160F0
:1054E000704700000FB4054B10B503A9044A029899
:1054F00001F0C4F810BC5DF814FB00002975000829
:105500003003002003B401984100009850EAC12004
:1055100018BF04204A0D18BF40F0010040F2FF728E
:10552000B2EB515F08BF40F00200012808BF052020
:1055300002B0704730B528B1144C031F0020216819
:105540000A4605E0084630BD9A4203D81046526824
:10555000002AF9D1002800D041680BD00468A3EBE1
:105560000005A54204D11B681C440346046002E008
:10557000436000E023603AB11C68D51AA54203D10C
:1055800015682C441C6052685A6030BD34030020FA
:105590002DE9F04D2DED040B2DED0E8B96B0DDE9D0
:1055A0002550279CDDF890A025F0004624F0004807
:1055B000BAF1000F14BF0121002101EB4502FC49A3
:1055C00053184A1093422AD3002814BF0123002302
:1055D00003EB44030B44F7498B4220D358EA000104
:1055E0009FEDF59B76D0DFF8D8B35D4503D1BAF1D6
:1055F000000F05D188E0BAF1000F08BF002100D0EC
:10560000012101EB450111F5001F08D8002814BF46
:105610000121002101EB440111F5001F0BD99DED83
:10562000261B9DED240B16B0BDEC0E8B04B0BDE81F
:10563000F04D00F091BE0027002DBCBFE149884528
:1056400021DAE1498845A8BF02271CDAC3451ADCE4
:10565000DE4901EB2851142908DDC1F1340220FA9A
:1056600002F101FA02F282420DD108E058B9C1F10B
:10567000140228FA02F101FA02F2424503D101F0C4
:105680000101C1F1020756EA0A0124D1002C22DAF5
:10569000002D18BF022F01D0012F0AD0022000F0E8
:1056A000A7FE16B0BDEC0E8B04B0BDE8F04D00F0C7
:1056B0003BBE022000F09CFE00F036FE51EC100BC9
:1056C00081F0004141EC100B16B0BDEC0E8B04B024
:1056D000BDE8F08D18E09FEDBEAB9FEDBF8B0028BD
:1056E00071D1B848804522D105F1804010F5801075
:1056F00008BFBAF1000F07D0B3450ADC002CA8BFE1
:105700009DED260BE0DA0DE0B0EE490AF0EE690AF5
:10571000DAE7002C06DA9DED260B51EC100B81F038
:1057200000416FE0AE48784490ED000BCCE7D845DF
:105730004DD1002C48DA2EB186423AD1BAF1000F91
:1057400042D126E0BAF1000F13D0022000F050FE43
:1057500000F01EFE8DED020B9DED240B8DED000B78
:1057600010EE900A039961F31E0003909DED020B69
:10577000AAE78DED02AB9DED240B1AEE901A10EE08
:10578000900A8DED000B61F31E0003909DED020B5E
:105790009AE78DED028B9DED240B18EE901A10EE1A
:1057A000900A8DED000B61F31E0003909DED020B3E
:1057B0008AE709DA9DED240B51EC190B53EC102B01
:1057C000FAF7BEFE1EE020E09DED240B7CE786424A
:1057D0001BDAB4F1804F0DD0A4F10050B0F1FF50AE
:1057E00013D1002D11DB9DED240B51EC100B03F0B8
:1057F00045F907E09DED240B53EC102B51EC100BF9
:1058000000F0C2BC41EC100B5EE79DED240B51ECA7
:10581000100B01F07DFEBAF1000FCDE90E0142D16F
:105820009FED710B46B3A6F1E040B0F17F600CD064
:105830005E4538D1002D00DAA7B3022F0CBF01203E
:105840004FF0FF30FAF7EBFEDCE7002D01DD002C16
:105850000DDA002D01DD002C1FDB002D16DA002CE7
:1058600014DB012F08BF9FED620B3FF42DAFB0EEAC
:105870004A0AF0EE6A0A27E7022F18BF002D0CD063
:10588000012F0AD1002DFFF61FAF06E0002DB8BF93
:10589000002C08DA012F3FF417AFB0EE480AF0EE03
:1058A000680A11E71BE0012000EBE57050EA0701F0
:1058B00015D0791EB0EE498AF0EE698A084308BF18
:1058C0009FED4D8B4E480025804570DD4D494E487B
:1058D000884514DDB0420DDB002C19DB2FE00120E0
:1058E00000F086FD16B0BDEC0E8B04B0BDE8F04DA7
:1058F00000F03EBDB34502DC002C09DC1FE086420F
:1059000002DA002C1BDA03E05E452BDD002C16DDED
:10591000022000F06DFD00F03BFD8DED020B53EC1D
:105920001A2B51EC180BFAF799FDCDE900010399F8
:10593000019861F31E0003909DED020BC4E6022066
:1059400000F056FD00F034FD10EE901A18EE900AAB
:105950008DED020B8DED008B61F31E0003909DED2C
:10596000020BB1E69DED0E0B53EC192B51EC100B15
:10597000FAF76EFD9FED260BCDE9080153EC102BD5
:105980009DED080B51EC100BFAF768FD9FED221B03
:1059900053EC112BFAF75FFD9DED081B53EC112B17
:1059A000FAF75CFD9FED1E1B53EC112B3CE08CE0E5
:1059B000FFFF1F00FFFF0F00000000000000F03F8E
:1059C0000000F03F0000F07F0000404301FCFFFFBB
:1059D000000000000000F07F000000000000000058
:1059E000163E0000000000000000000000000080E3
:1059F000000000000000F0FF000000000000F0BF09
:105A00000000E0410000F043FFFFEF3F0000000016
:105A1000000000000000D03F555555555555D53F65
:105A2000000000000000E03FFAF715FD9DED080BB7
:105A300041EC1A0B53EC102B51EC100BFAF70EFD46
:105A400053EC1A2BFAF70AFD41EC1A0B9FEDFE0BF3
:105A500053EC102B9DED080B51EC100BFAF7FEFCEC
:105A600041EC1B0B9FEDFA0B51EC1A0B53EC102B76
:105A7000FAF7F4FC41EC1A0B9FEDF70B53EC102BEB
:105A80009DED080B51EC100BFAF7E8FC53EC1A2BC8
:105A9000FAF7DEFC41EC1A0B51EC1B0B53EC1A2B02
:105AA000FAF735FC0690CDE906519DED060B53EC57
:105AB0001B2B51EC100BFAF7CBFC53EC1A2BFAF71B
:105AC000CAFC41EC100B00F0A1B90020B6F5801F14
:105AD0000EDA9FEDE30B53EC102B9DED0E0B51EC0A
